:100000000C94C1000C94E0000C94E0000C94E0000F
:100010000C94E0000C94E0000C94E0000C94E000E0
:100020000C94E0000C94E0000C944B070C948307B4
:100030000C94E0000C94E0000C94E0000C94E000C0
:100040000C94E0000C94E0000C94E0000C94E000B0
:100050000C94E0000C94E0000C94E0000C94E000A0
:100060000C94E0000C94E0000C94E0000C94E00090
:100070000C94E0000C94E0000C94E0000C94E00080
:100080000C94E0000C94E0000C94E0000C94E00070
:100090000C94E0000C94E0000001000065011200E7
:1000A000020000220143000300001E0104010309B5
:1000B000040E010E02030904D0003C03030904C22C
:1000C000000C0C0331003200330034003500000016
:1000D0003C034E004F005200770061007900200081
:1000E000500053003300200046006C006100730094
:1000F0006800650072002000550053004200200097
:10010000530065007200690061006C0000000E037E
:100110006A00750064006700650073000000040356
:10012000090409024300020100C0FA0904000001A9
:10013000020201000524001001052401010104242C
:100140000206052406000107058203100040090489
:100150000100020A00000007050302400000070535
:1001600084024000001201000202000010C0167A52
:10017000040001010203010001C112018036018166
:10018000360011241FBECFEFD0E2DEBFCDBF11E09D
:10019000A0E0B1E0E6E4F3E200E00BBF02C00790AC
:1001A0000D92A830B107D9F721E0A8E0B1E001C075
:1001B0001D92AF30B207E1F70E942A0A0C94541145
:1001C0000C940000EF92FF920F931F930CE810E045
:1001D000EE24EA94F12CF801F182E08220E830E08C
:1001E000F9018081886080834FE956E861E070E022
:1001F000DB01CA010197A109B109000001F0D1F7A3
:10020000C8950000F80111821082F9018081886090
:100210008083DB01CA010197A109B109000001F047
:10022000D1F7C8950000F801F182E082F9018081E0
:1002300088608083DB01CA010197A109B109000030
:1002400001F0D1F7C8950000F80111821082F90180
:10025000808188608083DB01CA010197A109B1090F
:10026000000001F0D1F7C8950000F801F182E082AA
:10027000F901808188608083DB01CA010197A109AF
:10028000B109000001F0D1F7C8950000F801118212
:100290001082F901808188608083DB01CA010197A7
:1002A000A109B109000001F0D1F7C8950000F801DB
:1002B000F182E082F901808188608083DB01CA01DC
:1002C0000197A109B109000001F0D1F7C89500001C
:1002D000F80111821082F901808188608083DB013E
:1002E000CA010197A109B109000001F0D1F7C89531
:1002F0000000F801F182E082F9018081886080834A
:10030000DB01CA010197A109B109000001F0D1F791
:10031000C8950000F80111821082F901808188607F
:100320008083DB01CA010197A109B109000001F036
:10033000D1F7C89500001F910F91FF90EF9008959D
:1003400085B962B941BB089588B96BB90000759849
:10035000759A089590910C019F3F79F09F5F90935B
:100360000C01882349F080910D0185B980910E011F
:1003700082B980910C0181BB089510920C0190917B
:100380000E019F3F21F09F5F90930E01EACF1092E4
:100390000E0190910D019F3720F49F5F90930D0106
:1003A000E0CF10920D01DDCF282F00C04FEF5FEF9F
:1003B0006FEF70E005C0415051096109710929F1E1
:1003C0009CB1892F807496FFF6CF211102C081E085
:1003D000089580910C0190910D018F3F61F08F5F26
:1003E00080930C0195B980910E0182B980910C0126
:1003F00081BB81E0089510920C0180910E018F3F26
:1004000029F08F5F80930E01EDCF089510920E01B9
:100410009F3720F49F5F90930D01E4CF10920D0160
:1004200090E0E0CF1F93182F00C066992EC02FEFE9
:1004300030E04FE453EC60E070E030938D002093A7
:100440008C0090918000986090938000DB01CA013D
:100450000197A109B109000001F0D1F7C89500008A
:1004600010928D0010928C00909180009860909373
:100470008000DB01CA010197A109B109000001F068
:10048000D1F7C8950000669BD8CF111103C080E05A
:100490001F91089580910C0190910D018F3F69F09B
:1004A0008F5F80930C0195B980910E0182B9809184
:1004B0000C0181BB80E01F91089510920C01809186
:1004C0000E018F3F21F08F5F80930E01ECCF1092D1
:1004D0000E019F3720F49F5F90930D01E4CF10929F
:1004E0000D0190E0E0CF67991DC050E02CB1207164
:1004F000669910C040E0609910C080E0659910C016
:1005000030E09CB196959170922B952B942B892B72
:10051000832B089548E0609BF0CF84E0659BF0CF8B
:1005200032E0EFCF50E2E2CFF89481E08093E00038
:1005300080E28093D80029EC30E0F90110828FE44A
:1005400093ECA0E0B0E00197A109B109000001F02F
:10055000D1F7C89500001DBA109268001CBC10BEEF
:100560001FBA10927A0010926E0010926F001092D3
:1005700070001092710010821092BC0011B814B873
:1005800017B81AB81DB810BA12B815B818B81BB8F1
:100590001EB811BA0C9400FE0895EF92FF920F93CB
:1005A0001F93CF93DF93CDB7DEB7D0510FB6F8943A
:1005B000DEBF0FBECDBF10E000E0E12C80E1F82EE1
:1005C000B701601B710B6930710510F068E070E0D5
:1005D00081E090E08C0F9D1F800F911F0E94EA0424
:1005E0009C012F3F3207E9F0020F131F011580E134
:1005F000180730F30115104181F48BE40E944E0579
:10060000D05F0FB6F894DEBF0FBECDBFDF91CF91A4
:100610001F910F91FF90EF90089582E50E944E0583
:10062000EFCF84E50E944E05EBCF0F931F93CF933E
:10063000DF93CDB7DEB7C054D1090FB6F894DEBF53
:100640000FBECDBF198281E08A8310E000E082E016
:10065000E1E0F0E0EC0FFD1FE80FF11D808391E079
:10066000980FE1E0F0E0EC0FFD1FE90FF11D908322
:100670008E5F803489F00F5F1F4F0F3F100741F7E7
:10068000C05CDF4F0FB6F894DEBF0FBECDBFDF9169
:10069000CF911F910F91089560E470E0CE01019613
:1006A0000E94B5050F5F1F4F0F3F100749F380E011
:1006B000CFCF9B0117B81AB8672B09F43EC0FC01D5
:1006C000280F391F10C08F5F80930C0180910D019E
:1006D00085B980910E0182B980910C0181BB32965F
:1006E000E217F30751F17198000086B190819813D9
:1006F0001DC089B19181981319C0719A80910C0124
:100700008F3F09F710920C0190910E0180910D011D
:100710009F3F21F09F5F90930E01DACF10920E0160
:100720008F3738F48F5F80930D01D2CF719A81E0BB
:10073000089510920D0180E0CBCF8FEF87B98AB971
:1007400080E008958FEF87B98AB984B981B980BBF9
:1007500015B812B811BA8DB96E98769A8EB18E7797
:100760008EB98EB182638EB908951DB817B81AB8C4
:1007700014B811B810BA1EB818B81BB815B812B80A
:1007800011BA08950F931F93382F882309F430C0AE
:1007900020E00FEF10E04FE956E861E070E01093C1
:1007A0008D0000938C009091800098609093800061
:1007B000DB01CA010197A109B109000001F0D1F7DD
:1007C000C895000010928D0010928C0090918000CE
:1007D000986090938000DB01CA010197A109B109DB
:1007E000000001F0D1F7C89500002F5F3213D7CF7A
:1007F0001F910F9108950F931F93CF93DF93279A23
:10080000D0E0C0E00FE11EE405C02596C43081E0D1
:10081000D80751F1D0938D00C0938C008091800057
:10082000886080938000C8010197F1F7000000C044
:100830000E94C004882349F38FEF87B98AB984B92D
:1008400081B980BB15B812B811BA8DB96E98769A75
:100850008EB18E778EB98EB182638EB9DF91CF91D2
:100860001F910F910C94E200CFEFD0E00FE11EE456
:1008700005C02597CB3F8FEFD80799F0D0938D0017
:10088000C0938C0080918000886080938000C801B4
:100890000197F1F7000000C00E94C004882349F3CB
:1008A000CBCFDF91CF911F910F9108950F931F939D
:1008B000CF93DF93279AD0E0C0E00FE017E205C0A6
:1008C0002596C43081E0D80719F1D0938D00C093EC
:1008D0008C0080918000886080938000C80101971F
:1008E000F1F7000000C00E94C3049C012F3F3207B3
:1008F00039F310928D0010928C00809180008860F6
:1009000080938000C901DF91CF911F910F910895CD
:10091000CFEFD0E00FE017E205C02597CB3F8FEF78
:10092000D80781F3D0938D00C0938C008091800014
:10093000886080938000C8010197F1F7000000C033
:100940000E94C3049C012F3F320739F3D2CF81E8C4
:100950008093D70080EA8093D80086E189BD09B4EE
:1009600000FEFDCF80E98093D8001092E000109245
:100970000B01109208018CE08093E20078940895B6
:1009800080910B0108952FB7F89480910B01882373
:1009900089F083E08093E9008091E80085FD0EC036
:1009A0009BE606C09093E8008091E80085FD06C0B4
:1009B00082FDF8CF2FBF8FEF9FEF08958091F10058
:1009C0009091E80095FD03C09BE69093E8002FBF4F
:1009D00090E008959C014FB7F89480910B01882313
:1009E00089F083E08093E9008091E80085FD0EC0E6
:1009F0009BE606C09093E8008091E80085FD06C064
:100A000082FDF8CF4FBF8FEF9FEF089580E002C0C7
:100A1000861770F4F9019091F10090832F5F3F4F9A
:100A20008F5F9091E80095FDF3CF9BE69093E800EF
:100A30004FBF90E008959FB7F89480910B018823F1
:100A4000A1F083E08093E9008091F20081110BC056
:100A50002091E80022FF09C0822F807225FD05C089
:100A60002BE62093E8009FBF089580E09FBF089584
:100A700080910B01882389F02FB7F89483E080934D
:100A8000E9008091E80085FF07C09BE69093E800AD
:100A90008091E80085FDFACF2FBF089590910B015A
:100AA000992309F43FC09FB7F89424E02093E9000C
:100AB0002091090121111FC03091E4003853209189
:100AC000E80025FD1FC044E00CC090910B01992364
:100AD00049F19FB7F8944093E9002091E80025FD83
:100AE00011C09FBF9091E4009313EFCF81E08093FA
:100AF00009018FEF08952091E80025FF12C01092A0
:100B00000901DACF8093F1008091E80085FD03C0F0
:100B10008AE38093E80085E080930A019FBF80E02C
:100B200008959FBF8FEF089590910B019923C1F015
:100B30009FB7F89424E02093E9002091E80025FF76
:100B400011C08093F1008091E80085FD03C08AE325
:100B50008093E80085E080930A019FBF80E00895BC
:100B60008FEF08959FBF8FEF08950F931F93CF933B
:100B7000DC01AB0180910B01882309F420C18FB700
:100B8000F89494E09093E9009091090191112AC0A2
:100B90004115510509F410C134E070E465E0CAE381
:100BA0002091E40028539091E80095FF0EC021C0E9
:100BB00080910B01882309F402C18FB7F894309318
:100BC000E9009091E80095FD14C08FBF8091E4008A
:100BD0008213EECF81E0809309018FEFCF911F91B7
:100BE0000F9108959091E80095FFE8C010920901D7
:100BF000CFCF9091F200E72FE91B0E2F10E04017A6
:100C0000510718F4E42F8A011127401B510BE134DE
:100C100008F0C2C0F0E0EE59FE4E0C944B119D91CD
:100C20009093F1009D919093F1009D919093F1002C
:100C30009D919093F1009D919093F1009D919093DF
:100C4000F1009D919093F1009D919093F1009D9101
:100C50009093F1009D919093F1009D919093F100FC
:100C60009D919093F1009D919093F1009D919093AF
:100C7000F1009D919093F1009D919093F1009D91D1
:100C80009093F1009D919093F1009D919093F100CC
:100C90009D919093F1009D919093F1009D9190937F
:100CA000F1009D919093F1009D919093F1009D91A1
:100CB0009093F1009D919093F1009D919093F1009C
:100CC0009D919093F1009D919093F1009D9190934F
:100CD000F1009D919093F1009D919093F1009D9171
:100CE0009093F1009D919093F1009D919093F1006C
:100CF0009D919093F1009D919093F1009D9190931F
:100D0000F1009D919093F1009D919093F1009D9140
:100D10009093F1009D919093F1009D919093F1003B
:100D20009D919093F1009D919093F1009D919093EE
:100D3000F1009D919093F1009D919093F1009D9110
:100D40009093F1009D919093F1009D919093F1000B
:100D50009D919093F1009D919093F1009D919093BE
:100D6000F1009D919093F1009D919093F1009D91E0
:100D70009093F1009D919093F1009D919093F100DB
:100D80009D919093F1009D919093F1009D9190938E
:100D9000F1009D919093F1009D919093F1009091BD
:100DA000E80095FD11C0C093E80060930A018FBF71
:100DB0004115510509F0F4CE80E010CF8FBF8FEFC1
:100DC000CF911F910F91089560930A018FBF411534
:100DD000510509F0E5CE80E001CF8FB7F8949091EE
:100DE0000A01992341F094E09093E9009AE39093EB
:100DF000E80010920A018FBF0895CF93DF9300D0CF
:100E000000D0CDB7DEB78091000190910101A09193
:100E10000201B0910301BC01CD010F900F900F9022
:100E20000F90DF91CF9108958091040108958091F2
:100E300005010895809106010895809108010895A3
:100E40002FB7F89490910B01992311F192E09093B0
:100E5000E9009091E80095FF1BC091EA9093F100A2
:100E600090E29093F1001092F1001092F100109234
:100E7000F1001092F10091E09093F1001092F100D6
:100E80008093F1008AE38093E8002FBF80E008950B
:100E90002FBF8FEF08951F921FB61F9211248F93BB
:100EA0009F938091E1001092E10083FF11C01092A6
:100EB000E90091E09093EB001092EC0092E19093A6
:100EC000ED0098E09093F00010920B011092080151
:100ED00082FF13C080910B01882379F080910A0171
:100EE000882359F0815080930A01811106C084E063
:100EF0008093E9008AE38093E8009F918F911F908F
:100F00001FBE1F9018951F921FB61F9211242F937A
:100F10002BB72F933F934F935F936F937F938F9351
:100F20009F93AF93BF93CF93DF93EF93FF93109271
:100F3000E9008091E80083FF32C07091F100809158
:100F4000F1002091F1009091F100392F4091F100D2
:100F50009091F100592F6091F100A091F10092EF72
:100F60009093E800863091F1853009F4F5C189301D
:100F700009F44EC0883009F4B9C0813209F4C5C003
:100F8000803209F4F4C1823209F457C2882389F10E
:100F9000982F9D7F913019F4723009F425C281E2B7
:100FA0008093EB00FF91EF91DF91CF91BF91AF91D3
:100FB0009F918F917F916F915F914F913F912F9171
:100FC0002BBF2F911F901FBE1F901895E8E9F0E0EE
:100FD000859194912817390709F0BEC0EAE9F0E03D
:100FE000859194914817590709F0B6C088E990E0B7
:100FF000D6C09091E80090FFFCCF723809F413C27C
:101000008093F1001092F1008EEF8093E800CACF38
:101010007111C5CF20930B011092080110920A01A3
:101020008EEF8093E80081E08093E900E7E7F1E04C
:10103000E491E093EB0028E731E0EE2361F0E8E78C
:10104000F1E0E491E093EC00E9E7F1E0E491E09372
:10105000ED002AE731E082E08093E900C9010196C2
:10106000F90144914093EB00442361F0FC01849129
:101070008093EC00C90103962E5F3F4FF901249144
:101080002093ED0023E02093E9009C012F5F3F4F68
:10109000FC0144914093EB00442361F0F901249159
:1010A0002093EC009C012D5F3F4F0296FC01849140
:1010B0008093ED0084E08093E900A9014F5F5F4FCA
:1010C000F90184918093EB00882351F0FA01449157
:1010D0004093EC002E5F3F4FF90124912093ED00E7
:1010E0008EE18093EA001092EA005CCF703809F03C
:1010F00056CF8091E80080FFFCCF80910B01809358
:10110000F1008EEF8093E8004DCF713A09F047CFA0
:101110008091E80080FFFCCF809100018093F10076
:10112000809101018093F100809102018093F10090
:10113000809103018093F100809104018093F1007C
:10114000809105018093F100809106018093F10068
:101150008EEF8093E80026CFEFE9F0E0859194913F
:101160002817390751F4E1EAF0E085919491481786
:10117000590719F48FE990E012C0E6EAF0E0859192
:1011800094912817390709F0C4C0E8EAF0E0859186
:1011900094914817590709F0BCC086EA90E0FC0119
:1011A000349625913491FC01369644917A2F6F3F05
:1011B000710519F010F06FEF70E0641708F4462F16
:1011C0005EEF8091E800982F9570D9F382FDEACE0A
:1011D000842F413108F080E1442309F437C1D9015B
:1011E0001196F90194919093F1006FEF680F81309F
:1011F00009F47FC0E9012296FD01A491A093F100BA
:10120000823009F476C0D9011396FE01C491C093CF
:10121000F100833009F46DC0E9012496FD01A49129
:10122000A093F100843009F464C0D9011596FE0141
:10123000C491C093F100853009F45BC0E9012696A2
:10124000FD01A491A093F100863009F452C0D901A8
:101250001796FE01C491C093F100873009F449C08C
:10126000E9012896FD01A491A093F100883009F4CA
:1012700040C0D9011996FE01C491C093F100893094
:1012800009F437C0E9012A96FD01A491A093F10069
:101290008A3009F42EC0D9011B96FE01C491C09377
:1012A000F1008B3031F1E9012C96FD01A491A0935E
:1012B000F1008C30F1F0D9011D96FE01C491C0936C
:1012C000F1008D30B1F0E9012E96FD01A491A093BB
:1012D000F10092EF980F8E3061F0D9011F96FE0158
:1012E000C491C093F100913021F0FD01A491A0932D
:1012F000F10070E06F5F7F4F260F371F942F981B10
:101300005093E800481303C0403108F44BCE492FF6
:1013100058CFEDEAF0E0859194912817390751F400
:10132000EFEAF0E0859194914817590719F48DEA96
:1013300090E035CFE4EBF0E08591949128173907E0
:1013400009F03FC0E6EBF0E085919491481759070A
:10135000C1F584EB90E023CF8EEF8093E80080917D
:10136000E80080FFFCCF20682093E3001BCE7132A1
:1013700009F015CE8091E80082FFFCCF8091F1004A
:10138000809300018091F100809301018091F10030
:10139000809302018091F100809303018091F1001C
:1013A000809304018091F100809305018091F10008
:1013B000809306018BEF8093E8008EEF8093E80026
:1013C000F1CDEBEBF0E0859194912817390709F006
:1013D000E6CDEDEBF0E0859194914817590709F0BF
:1013E000DECD8BEB90E0DBCE232B09F0D8CD4F7711
:1013F0009FEF940F943008F0D2CD9EEF9093E800C9
:101400004093E900833009F4CACD89E18093EB0071
:1014100081E090E001C0880F4A95EAF78093EA00E6
:101420001092EA00BFCD4093E9008091EB0085FB6C
:10143000882780F91092E900E3CD713209F0AFCD31
:10144000209308018091E80080FFFCCF8EEF80930D
:10145000E800A8CDCDB7DEB7CD58D0410FB6F8948F
:10146000DEBF0FBECDBF90E89093610081E0809316
:10147000610021E825BF95BFF8948093800082E049
:101480008093810078941DB817B81AB814B811B8B1
:1014900010BA1EB818B81BB815B812B811BA0E9405
:1014A000A70402C00E94FB030E94C0048823D1F35A
:1014B00010920D0110920E0110920C01812CB12C92
:1014C000C357DF4E1882CD58D041CB57DF4E18821C
:1014D000C558D041C657DF4E1882CA58D04110E0D7
:1014E00020E030E042E050E0CA57DF4E28833983E5
:1014F0004A835B83C658D041AE014F5F5F4E1A01ED
:10150000CE018F5B9F4E6C01E12CB0E1FB2E05E01C
:10151000902E0E94380500EA0E94C0048823C9F377
:101520001C3008F0B6C2E12FF0E0EA5AFE4E0C94EF
:101530004B110E94C3048F3F980709F477C380932F
:101540000C0181BB10928D0010928C008091800064
:101550008860809380000E94C004182F8823C9F2FD
:1015600055245394AA24AA940E9456049C012F3F08
:10157000320709F45EC42115310509F45AC421303B
:10158000310509F41AC52230310509F407C52330A5
:10159000310509F410C52430310509F450C5253052
:1015A000310509F435C4C9019595879583309105B6
:1015B00009F435C58430910509F494C52A30310504
:1015C00009F465C52B30310509F497C586309105BE
:1015D00009F455C58730910509F49CC5A9015595B5
:1015E000479555954795559547954230510509F4CE
:1015F000B0C58C30910509F452C38D30910509F4C2
:1016000091C18E30910509F4CDC00F9709F403C63E
:10161000C901082E892F000C881F990B000C881F08
:10162000991F019709F4F1C5C901880F892F881FF7
:10163000990B019709F0FDC3C901880F991F959572
:10164000879580930D0185B910928D0010928C00C2
:10165000809180008860809380000E94C004811186
:10166000DCC212E056CFCB57DF4E1882C558D041AE
:101670008094882D90E090938D0080938C008091D1
:101680008000886080938000712C612CB7016619FE
:1016900077096930710510F068E070E081E090E052
:1016A0008C0F9D1F860D971D0E94EA048F3F98079F
:1016B00009F474C3680E791E6114E0E17E0630F30C
:1016C000E0910C01CF57DF4EE883C158D041F09133
:1016D0000E01C557DF4EF883CB58D04120910D0144
:1016E000C457DF4E2883CC58D0419E012F5B3F4F1B
:1016F000C457DF4E5881CC58D0414F2F9E2F75E5EF
:101700006AEA82E0A82E15E2BFE115B892B871BB73
:1017100018B86BB900007598759A15B8A2B861BB76
:1017200018B87BB900007598759A55B942B991BB44
:1017300018B81BB900007598759A55B942B991BB94
:1017400018B8BBB900007598759AF901E054F10911
:1017500011C08F5F80930C0180910D0185B980913C
:101760000E0182B980910C0181BB32962E173F0782
:1017700009F4E1C28181A081A8B98BB900007598F4
:10178000759A80910C018F3F21F710920C01A09166
:101790000E0180910D01AF3F09F4C1C2AF5FA0936C
:1017A0000E01DCCF719A7098B22EB294BB0CBB0CB8
:1017B00070ECB72210928D0010928C008091800006
:1017C0008860809380000E94C004CB57DF4E8883DE
:1017D000C558D041882309F416C5CB57DF4E18826F
:1017E000C558D0418094882D90E090938D008093CF
:1017F0008C0080918000886080938000712C612C27
:10180000B701661977096930710510F068E070E07A
:1018100081E090E08C0F9D1F860D971D0E94EA04C9
:101820008F3F980709F4BAC2680E791E6114E0E18F
:101830007E0630F360910C0150910E0140910D0134
:10184000B5B892B885E581BB18B89AEA9BB9000093
:101850007598759AB5B822E022B991BB18B88BB9C2
:1018600000007598759AB5B892B881BB18B880E237
:101870008BB900007598759A80910C0190910E01BA
:1018800020910D0125B992B981BBFE01319630E05E
:1018900020E080818F3F21F481818F3F09F429C3AB
:1018A00018B80BB900007598759A8181908198B924
:1018B0008BB900007598759A00C08FEF9FEFAFEF5E
:1018C000B0E004C00197A109B109D9F0669BFACF35
:1018D00080910C0190910D018F3F09F46CC28F5FD4
:1018E00080930C0195B980910E0182B980910C0111
:1018F00081BB2E5F3F4F3296211580E1380709F0FA
:10190000C8CF18B880E98BB900007598759A18B8D7
:101910001BB800007598759A2115304109F4D9C19A
:1019200084E5ACC0719A7098002436952795079489
:10193000369527950794322F202D922F9074B92E2B
:1019400010928D0010928C008091800088608093AE
:1019500080000E94C004CB57DF4E8883C558D04119
:10196000882309F496C4CB57DF4E1882C558D0415E
:101970008094882D90E090938D0080938C008091CE
:101980008000886080938000712C612CB7016619FB
:1019900077096930710510F068E070E081E090E04F
:1019A0008C0F9D1F860D971D0E94EA049C012F3FFE
:1019B000320709F4F3C1620E731E6114A0E17A06C6
:1019C00028F310910C0170910E0160910D01FE0140
:1019D000319625E53AEA52E080818F3F21F48181FA
:1019E0008F3F09F407C2B5B892B821BB18B83BB90C
:1019F00000007598759AB5B852B931BB18B82BB9B3
:101A000000007598759AB5B892B821BB18B80BB993
:101A100000007598759A80910C0190910E0140918B
:101A20000D0145B992B981BB8181908198B98BB97B
:101A300000007598759A80910C018F3F09F4B0C130
:101A40008F5F80930C0100C08FEF9FEFAFEFB0E08E
:101A500005C00197A109B10909F462CF669BF9CFCE
:101A60003296E215F30509F0B7CFC357DF4EA881D0
:101A7000CD58D041A13009F448C18BE40E944E05F5
:101A800061CDCB57DF4E8881C558D0410E941202EC
:101A9000182F10928D0010928C0080918000886029
:101AA0008093800039CD8094882D90E090938D00B4
:101AB00080938C0080918000886080938000CA575A
:101AC000DF4E288139814A815B81C658D04122305E
:101AD00031054105510509F4DBC1CA57DF4E888144
:101AE0009981AA81BB81C658D041B695A795979593
:101AF00087959C01AD012150310941095109CF570A
:101B0000DF4E288339834A835B83C158D04180E00C
:101B1000712C612C1B2D2701F82CC557DF4E9882A4
:101B2000CB58D04149015A017198000096B1F60195
:101B3000E80FF11D908399B1E1E0E80FEC0DFD2D68
:101B4000F11D8E5F9083719A90910C019F3F09F473
:101B500018C19F5F90930C0190910D0195B99091E0
:101B60000E0192B990910C0191BB803409F42EC101
:101B700093012F5F3F4FA30170E060E048155905C6
:101B80006A057B0509F47FC03901CECF0E94C304EA
:101B90008F3F980799F18BB9000010928D00109239
:101BA0008C00809180008860809380000E94C00437
:101BB000811102C017E0ADCC759ACB57DF4E8881FA
:101BC000C558D041882309F4BDCC90910C01809177
:101BD0000D019F3F09F4A6C19F5F90930C0185B949
:101BE00080910E0182B980910C0181BBABCC0E9427
:101BF000C3048F3F980709F45DC088B910928D0027
:101C000010928C00809180008860809380000E94F8
:101C1000C0048111BBCF16E07CCC0E94C3048F3F6F
:101C2000980709F411CD80930E0182B910928D00AE
:101C300010928C00809180008860809380000E94C8
:101C4000C004811176CC13E064CCC657DF4EA88166
:101C5000CA58D041AA2309F475CCBA2FB150C6573F
:101C6000DF4EB883CA58D04110928D0010928C007C
:101C7000809180008860809380000E94C004811160
:101C8000E4CF11E046CCB12E8F2C7201C557DF4E48
:101C90009880CB58D0418FEF87B98AB953CC719ACD
:101CA0008EB18E7D8EB9822F8170CB57DF4E8883A7
:101CB000C558D04110928D0010928C008091800008
:101CC0008860809380000E94C004811190CF15E04D
:101CD00020CCC357DF4EA881CD58D041A13009F0A8
:101CE000CCCE60930C0150930E0140930D0145B989
:101CF00052B961BB60E070E1CE0101960E945903C8
:101D0000813009F0BACE86E5B9CE10930C017093FC
:101D10000E0160930D0165B972B911BBEBCF109242
:101D20000E018F3720F48F5F80930D0117CD109235
:101D30000D0180E013CD55B942B991BB18B8F9E255
:101D4000FBB900007598759A00C044244A94542C3D
:101D5000642C712C07C041E0441A510861087108D5
:101D600009F4DECD669BF7CF205C3F4F2C153D0577
:101D700009F4F3C090910C0140910E0150910D01B6
:101D8000C4CC10920C0120910E0190910D012F3FB7
:101D900009F45EC02F5F20930E01E0CE82E56ECE87
:101DA00010920C0180910E018F3F09F45AC08F5F91
:101DB00080930E0148CE10920C0180910E018F3F4E
:101DC00009F47CC08F5F80930E018CCD60E470E0DD
:101DD000C6010E94B50593012F5F3F4FC301B0E0DC
:101DE000A0E088169906AA06BB0609F44CCF80E04D
:101DF00039019ACE80910C018F3F09F467C08F5F43
:101E000080930C013296E215F30509F0E5CD2DCE55
:101E100090910C0180910D019F3F09F471C19F5F6A
:101E200090930C0185B980910E0182B980910C01CB
:101E300081BB10928D0010928C0080918000886090
:101E4000809380000E94C004182F81118DCB61CB3C
:101E500010920E019F3708F048C09F5F90930D01CC
:101E60007DCE10920E0180910D018F3708F053C086
:101E70008F5F80930D01E7CD8094882D90E0909343
:101E80008D0080938C00809180008860809380001A
:101E90007198000086B10E944E0589B10E944E05DE
:101EA000719A82E090E0A0E0B0E0CA57DF4E8883EC
:101EB0009983AA83BB83C658D041EDCE10920E0100
:101EC0009F3760F59F5F90930D010CCD10920C0130
:101ED00080910E018F3F89F18F5F80930E013296C2
:101EE000E215F30509F078CDC0CD10920D0190E018
:101EF00035CE90910C0180910D019F3F09F450C0A7
:101F00009F5F90930C0185B980910E0182B98091F9
:101F10000C0181BBEECC10920D0195CD10920D01FC
:101F200090E0E0CC10920C0190910E019F3F09F4DB
:101F300063C09F5F90930E0152CE10920E0180916C
:101F40000D018F3708F050C08F5F80930D013296DE
:101F5000E215F30509F040CD88CDC357DF4EB881B7
:101F6000CD58D041B13009F088CDCF57DF4E5881E0
:101F7000C158D04150930C01C557DF4E8881CB58D2
:101F8000D04180930E01C457DF4E9881CC58D04188
:101F900090930D0195B982B951BBACCE82E46ECD60
:101FA00010920C0190910E019F3F09F44BC09F5F6E
:101FB00090930E01A8CF8DEB61CD67994CC050E096
:101FC0009CB19071669922C040E0609922C030E0D7
:101FD00065991AC020E08CB186958170892B852B7C
:101FE000842B832B822B4ACD10920D013296E21561
:101FF000F30509F0F1CC39CD10920E018F3758F46A
:102000008F5F80930D01EBCD22E0E5CF48E0609B30
:10201000DECF34E0DDCF10920D0180E0E0CD263040
:102020003105D9F41DB817B81AB814B811B810BAD8
:102030001EB818B81BB815B812B811BAFACE0E945B
:102040009402F7CE10920E018F3708F050C08F5FC8
:1020500080930D0158CF50E2B3CFA7B8AAB8A4B867
:10206000A1B8A0BA15B812B811BAADB86E98769AE0
:102070008EB18E778EB98EB182638EB9DACE422F51
:102080004170C357DF4E4883CD58D041D2CED101E5
:102090001C9211965C92712C612C82E0F101E80F88
:1020A000F11D808391E0980FF101E90FF11D9083FC
:1020B0008E5F803441F0EFEF6E1A7E0AFFEF6F16ED
:1020C0007F0661F7B6CE60E470E0C1010E94B505FD
:1020D000AFEF6A1A7A0ABFEF6B167B0609F4A9CE36
:1020E00080E0DCCF2830310531F07498A2CE109218
:1020F0000D0180E008CF749A9CCE0E94CD0299CE4B
:1021000010920C0190910E019F3FD1F09F5F909330
:102110000E0188CE522F5170CB57DF4E5883C558D1
:10212000D04110928D0010928C00809180008860C8
:10213000809380000E94C0048111A3CC18E0E9C9FB
:1021400010920E018F3708F04DC08F5F80930D0104
:1021500069CE2031310549F12131310509F472C0D0
:102160002231310509F488C02331310509F477C0E3
:1021700017B81AB810928D0010928C0080918000D0
:102180008860809380000E94C004811175CE14E0A5
:1021900082E090E0A0E0B0E0CA57DF4E88839983E8
:1021A000AA83BB83C658D041B4C920E030E140E0E7
:1021B00050E0CA57DF4E288339834A835B83C65871
:1021C000D04117B81AB810928D0010928C008091EF
:1021D00080008860809380000E94C004811106C046
:1021E00014E097C910920D0180E01CCE8094882DD8
:1021F00090E090938D0080938C00809180008860A7
:10220000809380006ACC1AE084C9C657DF4E2883C9
:10221000CA58D04129CD719A709810928D001092B1
:102220008C00809180008860809380000E94C004B0
:10223000CB57DF4E8883C558D041B12C811113CACA
:102240001BE067C980E090E2A0E0B0E0CA57DF4E33
:1022500088839983AA83BB83C658D041B2CF80E0DC
:1022600090E0A2E0B0E0CA57DF4E88839983AA834A
:10227000BB83C658D041A5CF20E030E041E050E01C
:10228000CA57DF4E288339834A835B83C658D041BF
:1022900098CF19E03EC9EE0FFF1F0024001C0BBEB3
:1022A0000790F691E02D0994F894FFCFB00A250E1F
:1022B0000D0E990A530DF70DC60DDC0D410DB80C2E
:1022C000F20B380BCF06CC06C906C606C306C006FD
:1022D000BD06BA06B706B406B106AE06AB06A8063A
:1022E000A506A2069F069C069906960693069006EA
:1022F0008D068A068706840681067E067B0678069A
:10230000750672066F066C06690666066306600649
:102310005D065A065706540651064E064B064806F9
:10232000450642063F063C063906360633063006A9
:102330002D062A062706240621061E061B06180659
:06234000150612060F064F
:0823460000E1000000000800A6
:00000001FF
